:100A15006B6579706164207363616E2E2E2E2000E4
:100A2500636F72726563742070617373776F72643C
:010A350000C0
:080ABE00060E414243313233C0
:100A3600E4FDFCC3ED9FEC9E5015E4FBFA0BBB00F6
:0F0A4600010ABA04F8BBFBF50DBD00010C80E4FA
:010A5500227E
:0A0AB400E4F580F590F5A0F5B022FE
:0F0A8800D287C2A7D2A6C2A5D2A530870280F717
:010A9700223C
:0E0A9800120A888F80D2A5C2A7C2A6C2A522CC
:0E0AA600120A888F80D2A5D2A7C2A6C2A522AE
:100A56007F38120A987F0F120A987F06120A987F2B
:090A660001120A987F1C020A9893
:1009CB008B148A158916AB14AA15A916120A6F6017
:1009DB00130516E5167002051514F9120A6FFF12AE
:0509EB000AA680E222D3
:10088C007590F0E590B4F00280F97590FE20940319
:10089C007F31222095037F32222096037F33222042
:1008AC0097037F41227590FD2094037F342220957D
:1008BC00037F35222096037F36222097037F422226
:1008CC007590FB2094037F37222095037F382220DC
:1008DC0096037F39222097037F43227590F720944B
:1008EC00037F2A222095037F30222096037F232228
:0608FC002097027F442258
:1009A50090000012088CAE8274082EF8A6077F2AE4
:1009B500120AA67F507E00120A36A3E58264064518
:0509C5008370E07F08D3
:0109CA00220A
:1009F000120AB4120A567F01120A987BFF7A0A790A
:100A0000151209CB7FC0120A981209717F647E000B
:050A1000120A3680E12E
:100971001209A575170075180075190E751A0075FD
:100981001B067B007A007908120902EF70157F01BE
:10099100120A987BFF7A0A79251209CB7F647E00BF
:0409A100120A3622DE
:03000000020800F3
:0C080000787FE4F6D8FD75811B020847E4
:100A6F00BB010689828A83E0225002E722BBFE0285
:090A7F00E32289828A83E49322B8
:100902008B148A158916AB17AA18A919120A6FFE39
:10091200AB14AA15A916120A6FFF6E702BEF600DA9
:10092200E51B151B7002151A14451A70037F00226D
:1009320074012516F516E43515F51574012519F51A
:1009420019E43518F51880BEAB14AA15A916120AB7
:100952006FFDD3EE6480F8ED64809840037F01223E
:0F096200AB17AA18A919120A6FFFC3ED9FFF2246
:10080C000209F0E493A3F8E493A34003F68001F209
:10081C0008DFF48029E493A3F85407240CC8C333ED
:10082C00C4540F4420C8834004F456800146F6DFBC
:10083C00E4800B0102040810204080900ABEE47E84
:10084C00019360BCA3FF543F30E509541FFEE493B1
:10085C00A360010ECF54C025E060A840B8E493A378
:10086C00FAE493A3F8E493A3C8C582C8CAC583CAA3
:10087C00F0A3C8C582C8CAC583CADFE9DEE780BE5B
:010AC600002F
:00000001FF
